:020000040000FA
:0400000007EF00F016
:100008000D8209ED00F075EF01F00600F2A20FEF86
:1000180000F011EF00F02AEF00F007040810D8A450
:1000280018EF00F01AEF00F02AEF00F0F292000E3D
:10003800086E000E076E8290000E0A6E000E096EA2
:10004800000E0B6E010E0C6E81EF00F0F0A02FEF8A
:1000580000F031EF00F04AEF00F007040810D8A4D0
:1000680038EF00F03AEF00F04AEF00F0F090000EA1
:10007800086E000E076E8290000E0A6E000E096E62
:10008800000E0B6E010E0C6E81EF00F0F2A24FEF26
:1000980000F051EF00F068EF00F007500810D8A406
:1000A80058EF00F05AEF00F068EF00F0F2920C2AD7
:1000B800060E0C6462EF00F064EF00F081EF00F0D0
:1000C800010E0C6E81EF00F0F0A06DEF00F06FEF05
:1000D80000F081EF00F007500810D8A476EF00F088
:1000E80078EF00F081EF00F0F090010E091AF29815
:1000F800F096F29EF29C81EF00F00D9211000C50E8
:10010800D8A489EF00F08BEF00F093EF00F00B50CC
:10011800D8B491EF00F093EF00F0EDEF00F0330E5C
:10012800046EBB0E036EE00EE82EFED7032EFCD73E
:10013800042EFAD7330E046EBB0E036EE00EE82EC3
:10014800FED7032EFCD7042EFAD7330E046EBB0E4F
:10015800036EE00EE82EFED7032EFCD7042EFAD746
:10016800330E046EBB0E036EE00EE82EFED7032E90
:10017800FCD7042EFAD7330E046EBB0E036EE00EC6
:10018800E82EFED7032EFCD7042EFAD7330E046EC2
:10019800BB0E036EE00EE82EFED7032EFCD7042E0E
:1001A800FAD70B060B28D8A4DCEF00F0DEEF00F03E
:1001B800EFEF00F0090E0B6E0C060C28D8A4E7EF41
:1001C80000F0E9EF00F0EFEF00F0000E0C6EEFEF3B
:1001D80000F0F0EC00F01200F28EF28CF288F0865B
:1001E800000E086E010E076E07500810D8A4FFEF26
:1001F80000F001EF01F003EF01F045EF01F082801C
:1002080007500810D8A40BEF01F00DEF01F00FEF25
:1002180001F045EF01F0020E026E450E016EAA0EC6
:10022800E82EFED7012EFCD7022EFAD70750081069
:10023800D8A421EF01F023EF01F025EF01F045EFFD
:1002480001F0829007500810D8A42DEF01F02FEF8D
:1002580001F031EF01F045EF01F0030E026E8A0E56
:10026800016E560EE82EFED7012EFCD7022EFAD7C5
:1002780007500810D8A443EF01F045EF01F0F8EF5C
:1002880000F01200938093829490000E956EF2888D
:10029800F086F28EF28C000E0B6E010E0C6E000EC4
:1002A800836E000E0A6E000E096E09500A10D8B44B
:1002B80060EF01F062EF01F064EF01F083EC00F011
:1002C8007FEC01F0030E066E8A0E056E560EE82EC0
:1002D800FED7052EFCD7062EFAD759EF01F007EF07
:1002E80000F00B6A0A6A096A086A076A0D900D929B
:1002F800000146EF01F00C38F00B0B10836E120072
:020000040020DA
:08000000FFFFFFFFFFFFFFFF00
:020000040030CA
:0E00000000001F1EFF8185FF0FC00FE00F40A4
:00000001FF
